:020000040000FA
:04000000A6EF0FF068
:10060000003F065B4F666D7D077F6F777C395E79B3
:1006100071554C4452535841425973443D2B31302B
:10062000302020523D2D31303000553D2B313020CF
:1006300020204C3D2D31300055203D202B204C20DA
:100640003D202D0044203D202A2052203D202F0017
:10065000526573756C7461646F3D002A002B000055
:1006600038EC0EF0D6EC0BF0E7EC0EF099EC0FF056
:100670002A0E0F6E060E106E88EC0CF0000E106E37
:10068000010E0F6E000E126E000E116ECAEC0EF00F
:100690001B0E0F6E060E106E88EC0CF0C7EC0CF003
:1006A000156E166A1F50151809E120501618D8B497
:1006B0005CEF03F05EEF03F0C4EF03F0C7EC0CF067
:1006C000156E15501F6E206AC7EC0CF00009D8B4E7
:1006D0006CEF03F06EEF03F0C4EF03F0C7EC0CF027
:1006E000156E1550256E266A550E25182610D8A4AD
:1006F0007CEF03F07EEF03F082EF03F00A0E212679
:10070000000E22224C0E25182610D8A48AEF03F0E2
:100710008CEF03F090EF03F0640E2126000E2222EE
:10072000440E25182610D8A498EF03F09AEF03F092
:100730009EEF03F0F60E2126FF0E2222520E251800
:100740002610D8A4A6EF03F0A8EF03F0ACEF03F057
:100750009C0E2126FF0E2222530E25182610D8A407
:10076000B4EF03F0B6EF03F0C4EF03F0640E77ECE0
:100770000DF0000E026EFA0E016EADEC0DF0000EE3
:1007800077EC0DF038EF04F0030E0F6E21C009F086
:1007900022C00AF0000E0C6E0A0E0B6E30EC0CF04C
:1007A00009500CEC0EF0020E0F6E000E046E0A0ED5
:1007B000036E21C001F022C002F074EC0BF001C006
:1007C00009F002C00AF0000E0C6E0A0E0B6E30EC3F
:1007D0000CF009500CEC0EF0010E0F6E000E046EC2
:1007E000640E036E21C001F022C002F074EC0BF025
:1007F00001C009F002C00AF0000E0C6E0A0E0B6E6A
:1008000030EC0CF009500CEC0EF0000E0F6E030EE5
:10081000046EE80E036E21C001F022C002F074ECF9
:100820000BF001C009F002C00AF0000E0C6E0A0EB7
:100830000B6E30EC0CF009500CEC0EF0E8EC08F00C
:10084000000E1E6E000E1D6E1D4A1E2A1EBE32EFC9
:1008500004F0E80E1D5C030E1E58D8A032EF04F021
:1008600034EF04F024EF04F053EC0AF04EEF03F001
:10087000010E8AEC0FF0380E0F6E060E106E88EC2B
:100880000CF0000E106E010E0F6E000E126E000EB8
:10089000116ECAEC0EF0440E0F6E060E106E88EC50
:1008A0000CF0C7EC0CF0156E166A1F50151809E114
:1008B00020501618D8B45FEF04F061EF04F0C7EFD2
:1008C00004F0C7EC0CF0156E15501F6E206AC7ECD3
:1008D0000CF00009D8B46FEF04F071EF04F0C7EF2B
:1008E00004F0C7EC0CF0156E1550256E266A550EF7
:1008F00025182610D8A47FEF04F081EF04F085EFCF
:1009000004F0000E1C6E000E1B6E4C0E25182610F7
:10091000D8A48DEF04F08FEF04F093EF04F0000EF5
:100920001C6E010E1B6E440E25182610D8A49BEFDA
:1009300004F09DEF04F0A1EF04F0000E1C6E020E17
:100940001B6E520E25182610D8A4A9EF04F0ABEFA9
:1009500004F0AFEF04F0000E1C6E030E1B6E530E7E
:1009600025182610D8A4B7EF04F0B9EF04F0C7EFAC
:1009700004F0640E77EC0DF0000E026EFA0E016EBC
:10098000ADEC0DF0000E77EC0DF0CBEF04F053EC76
:100990000AF051EF04F0010E8AEC0FF02A0E0F6EF0
:1009A000060E106E88EC0CF0000E106E010E0F6E2D
:1009B000000E126E000E116ECAEC0EF01B0E0F6EC2
:1009C000060E106E88EC0CF0C7EC0CF0156E166A73
:1009D0001F50151809E120501618D8B4F2EF04F092
:1009E000F4EF04F05AEF05F0C7EC0CF0156E15505B
:1009F0001F6E206AC7EC0CF00009D8B402EF05F0B6
:100A000004EF05F05AEF05F0C7EC0CF0156E155029
:100A1000256E266A550E25182610D8A412EF05F06B
:100A200014EF05F018EF05F00A0E2326000E24221D
:100A30004C0E25182610D8A420EF05F022EF05F063
:100A400026EF05F0640E2326000E2422440E2518FE
:100A50002610D8A42EEF05F030EF05F034EF05F0A6
:100A6000F60E2326FF0E2422520E25182610D8A497
:100A70003CEF05F03EEF05F042EF05F09C0E23261B
:100A8000FF0E2422530E25182610D8A44AEF05F095
:100A90004CEF05F05AEF05F0640E77EC0DF0000E08
:100AA000026EFA0E016EADEC0DF0000E77EC0DF05B
:100AB0000EEF06F0030E0F6E23C009F024C00AF0FB
:100AC000000E0C6E0A0E0B6E30EC0CF009500CECA4
:100AD0000EF0020E0F6E000E046E0A0E036E23C09F
:100AE00001F024C002F074EC0BF001C009F002C068
:100AF0000AF0000E0C6E0A0E0B6E30EC0CF0095072
:100B00000CEC0EF0010E0F6E000E046E640E036E00
:100B100023C001F024C002F074EC0BF001C009F016
:100B200002C00AF0000E0C6E0A0E0B6E30EC0CF0D8
:100B300009500CEC0EF0000E0F6E030E046EE80E62
:100B4000036E23C001F024C002F074EC0BF001C06E
:100B500009F002C00AF0000E0C6E0A0E0B6E30ECAB
:100B60000CF009500CEC0EF0E8EC08F0000E1E6ED4
:100B7000000E1D6E1D4A1E2A1EBEC8EF05F0E80EAF
:100B80001D5C030E1E58D8A0C8EF05F0CAEF05F093
:100B9000BAEF05F053EC0AF0E4EF04F0060E1A6E1B
:100BA0005D0E196E23502124176E24502220186EDA
:100BB0002CEF06F0060E1A6E420E196E2350215CC1
:100BC000176E24502258186E2CEF06F0060E1A6E7F
:100BD0005B0E196E21C001F022C002F023C003F0A9
:100BE00024C004F042EC0FF001C017F002C018F06E
:100BF0002CEF06F0060E1A6E4E0E196E21C001F093
:100C000022C002F023C003F024C004F074EC0BF007
:100C100001C017F002C018F02CEF06F01BC015F051
:100C20001CC016F01650000AD8B419EF06F02CEFCD
:100C300006F01550000AD8B4CEEF05F0010AD8B47A
:100C4000DAEF05F0030AD8B4E6EF05F0010AD8B4EC
:100C5000FAEF05F02CEF06F0010E8AEC0FF021C040
:100C60000FF022C010F03DEC0DF019C00FF01AC0CB
:100C700010F088EC0CF023C00FF024C010F03DEC15
:100C80000DF0000E106E010E0F6E000E126E000EB3
:100C9000116ECAEC0EF0500E0F6E060E106E88EC40
:100CA0000CF017C00FF018C010F03DEC0DF053EC35
:100CB0000AF0C7EC0CF0156E166A1F50151809E102
:100CC00020501618D8B467EF06F069EF06F057EF1A
:100CD00006F0C7EC0CF0156E15501F6E206AC7ECBD
:100CE0000CF00009D8B477EF06F079EF06F057EF73
:100CF00006F0C7EC0CF0156E1550256E266A730EC3
:100D000025182610D8A487EF06F089EF06F057EFD4
:100D100006F0010E8AEC0FF0000E226E000E216E1E
:100D2000000E246E000E236E1B681C6838EF03F063
:100D300000EF00F002BEA8EF06F0025007E1080E37
:100D4000015CD8B0A6EF06F0A8EF06F0D2EF06F0EF
:100D500003500410D8B4AFEF06F0B1EF06F0C1EFC6
:100D600006F001C005F0010E066E052ABAEF06F086
:100D7000D8900636052EB8EF06F006509212C0EF56
:100D800007F001C005F0010E066E052ACAEF06F055
:100D9000D8900636052EC8EF06F00650FF0A9216C8
:100DA000C0EF07F002BEE0EF06F0025007E1100EC0
:100DB000015CD8B0DEEF06F0E0EF06F00EEF07F0D2
:100DC00003500410D8B4E7EF06F0E9EF06F0FBEFAC
:100DD00006F001C005F0F80E0526010E066E052A84
:100DE000F4EF06F0D8900636052EF2EF06F0065026
:100DF0009312C0EF07F001C005F0F80E0526010EB2
:100E0000066E052A06EF07F0D8900636052E04EF89
:100E100007F00650FF0A9316C0EF07F002BE1CEF62
:100E200007F0025007E1180E015CD8B01AEF07F086
:100E30001CEF07F04AEF07F003500410D8B423EF7B
:100E400007F025EF07F037EF07F001C005F0F00ECF
:100E50000526010E066E052A30EF07F0D8900636FB
:100E6000052E2EEF07F006509412C0EF07F001C0D8
:100E700005F0F00E0526010E066E052A42EF07F07A
:100E8000D8900636052E40EF07F00650FF0A94165C
:100E9000C0EF07F002BE58EF07F0025007E1200E46
:100EA000015CD8B056EF07F058EF07F086EF07F077
:100EB00003500410D8B45FEF07F061EF07F073EF51
:100EC00007F001C005F0E80E0526010E066E052AA2
:100ED0006CEF07F0D8900636052E6AEF07F0065043
:100EE0009512C0EF07F001C005F0E80E0526010ECF
:100EF000066E052A7EEF07F0D8900636052E7CEFA9
:100F000007F00650FF0A9516C0EF07F002BE94EFF7
:100F100007F0025007E1280E015CD8B092EF07F00D
:100F200094EF07F0C0EF07F003500410D8B49BEF24
:100F300007F09DEF07F0AFEF07F001C005F0E00EFE
:100F40000526010E066E052AA8EF07F0D890063692
:100F5000052EA6EF07F006509612C0EF07F001C06D
:100F600005F0E00E0526010E066E052ABAEF07F021
:100F7000D8900636052EB8EF07F00650FF0A9616F1
:100F8000120002BECFEF07F0025007E1080E015C2D
:100F9000D8B0CDEF07F0CFEF07F0F9EF07F003502F
:100FA0000410D8B4D6EF07F0D8EF07F0E8EF07F059
:100FB00001C005F0010E066E052AE1EF07F0D8909A
:100FC0000636052EDFEF07F006508012E7EF08F037
:100FD00001C005F0010E066E052AF1EF07F0D8906A
:100FE0000636052EEFEF07F00650FF0A8016E7EFF2
:100FF00008F002BE07EF08F0025007E1100E015C96
:10100000D8B005EF08F007EF08F035EF08F0F80E5C
:101010000126FF0E022203500410D8B412EF08F08C
:1010200014EF08F024EF08F001C005F0010E066E81
:10103000052A1DEF08F0D8900636052E1BEF08F0A4
:1010400006508112E7EF08F001C005F0010E066EB0
:10105000052A2DEF08F0D8900636052E2BEF08F064
:101060000650FF0A8116E7EF08F002BE43EF08F0D2
:10107000025007E1180E015CD8B041EF08F043EFD1
:1010800008F071EF08F0F00E0126FF0E0222035067
:101090000410D8B44EEF08F050EF08F060EF08F0FD
:1010A00001C005F0010E066E052A59EF08F0D89030
:1010B0000636052E57EF08F006508212E7EF08F0CB
:1010C00001C005F0010E066E052A69EF08F0D89000
:1010D0000636052E67EF08F00650FF0A8216E7EF86
:1010E00008F002BE7FEF08F0025007E1200E015C1D
:1010F000D8B07DEF08F07FEF08F0ADEF08F0E80E14
:101100000126FF0E022203500410D8B48AEF08F023
:101110008CEF08F09CEF08F001C005F0010E066EA0
:10112000052A95EF08F0D8900636052E93EF08F0C3
:1011300006508312E7EF08F001C005F0010E066EBD
:10114000052AA5EF08F0D8900636052EA3EF08F083
:101150000650FF0A8316E7EF08F002BEBBEF08F067
:10116000025007E1280E015CD8B0B9EF08F0BBEFE0
:1011700008F0E7EF08F0E00E0126FF0E0222035010
:101180000410D8B4C6EF08F0C8EF08F0D8EF08F0A4
:1011900001C005F0010E066E052AD1EF08F0D890C7
:1011A0000636052ECFEF08F006508412E7EF08F060
:1011B00001C005F0010E066E052AE1EF08F0D89097
:1011C0000636052EDFEF08F00650FF0A84161200DF
:1011D000000E026E180E016E000E046E000E036EFD
:1011E000C1EC07F0000E026E190E016E000E046EC7
:1011F000000E036EC1EC07F0000E026E1A0E016EB7
:10120000000E046E000E036EC1EC07F0000E026EBD
:101210001B0E016E000E046E000E036EC1EC07F093
:10122000000E086E000E076E63EC0EF080EF09F002
:10123000010E3024F66EF76A060EF7220800F5500C
:10124000076E086A63EC0EF0000E026E180E016E57
:10125000000E046E010E036EC1EC07F0010E316E3C
:101260009DEF09F0010E2F24F66EF76A060EF722A5
:101270000800F550076E086A63EC0EF0000E026E6F
:10128000190E016E000E046E010E036EC1EC07F024
:10129000020E316E9DEF09F0010E2E24F66EF76AF4
:1012A000060EF7220800F550076E086A63EC0EF090
:1012B000000E026E1A0E016E000E046E010E036E19
:1012C000C1EC07F0030E316E9DEF09F0010E2D24E5
:1012D000F66EF76A060EF7220800F550076E086AE8
:1012E00063EC0EF0000E026E1B0E016E000E046E1B
:1012F000010E036EC1EC07F0000E316E9DEF09F098
:1013000031500A6E0B6A0B50000AD8B48AEF09F00C
:101310007CEF09F00A50000AD8B418EF09F0010A6E
:10132000D8B432EF09F0030AD8B44CEF09F0010A3F
:10133000D8B466EF09F07CEF09F0120002BEACEF02
:1013400009F0025007E1080E015CD8B0AAEF09F0DD
:10135000ACEF09F0C0EF09F001C003F0010E046E1C
:10136000032AB5EF09F0D8900436032EB3EF09F045
:1013700004508014056E0550016E026A52EF0AF0A7
:1013800002BECEEF09F0025007E1100E015CD8B0AA
:10139000CCEF09F0CEEF09F0E4EF09F001C003F063
:1013A000F80E0326010E046E032AD9EF09F0D89037
:1013B0000436032ED7EF09F004508114056E055052
:1013C000016E026A52EF0AF002BEF2EF09F002501B
:1013D00007E1180E015CD8B0F0EF09F0F2EF09F068
:1013E00008EF0AF001C003F0F00E0326010E046EB0
:1013F000032AFDEF09F0D8900436032EFBEF09F025
:1014000004508214056E0550016E026A52EF0AF014
:1014100002BE16EF0AF0025007E1200E015CD8B0C0
:1014200014EF0AF016EF0AF02CEF0AF001C003F0F7
:10143000E80E0326010E046E032A21EF0AF0D8906D
:101440000436032E1FEF0AF004508314056E055076
:10145000016E026A52EF0AF002BE3AEF0AF0025041
:1014600007E1280E015CD8B038EF0AF03AEF0AF035
:1014700050EF0AF001C003F0E00E0326010E046EE7
:10148000032A45EF0AF0D8900436032E43EF0AF002
:1014900004508414056E0550016E026A52EF0AF082
:1014A000016802681200000E2A6E000E296E000EFE
:1014B0000E6E000E0D6E0EBE67EF0AF00E5009E1C3
:1014C000050E0D5CD8A067EF0AF069EF0AF06BEF2C
:1014D0000AF0CCEF0AF00DC00AF0030E0A26010E46
:1014E0000B6E000E0C6E0A2A79EF0AF0D8900B36BC
:1014F0000C360A2E76EF0AF00BC007F00CC008F08D
:1015000063EC0EF0000E026E0A0E016E9EEC09F006
:1015100001500210D8B48FEF0AF091EF0AF0A4EF57
:101520000AF00DC00AF0010E0B6E000E0C6E0A2AB6
:101530009DEF0AF0D8900B360C360A2E9AEF0AF07F
:101540000B5029120C502A12000E026E090E016E69
:101550009EEC09F001500210D8B4B1EF0AF0B3EFDD
:101560000AF0C8EF0AF00DC00AF0050E0A26010EB7
:101570000B6E000E0C6E0A2AC1EF0AF0D8900B36E3
:101580000C360A2EBEEF0AF00B5029120C502A120C
:101590000D4A0E2A5BEF0AF02950271807E12A505E
:1015A0002818D8A4D6EF0AF0D8EF0AF0DBEF0AF03B
:1015B0003206E1EF0AF0010E326E29C027F02AC090
:1015C00028F03250D8A4E7EF0AF0E9EF0AF0EDEF87
:1015D0000AF027C02BF028C02CF01200000E0A6E73
:1015E00008BEF7EF0AF0F5EF0AF001EF0BF0081E66
:1015F000071E061E056C000E062207220822010E99
:101600000A6E04BE08EF0BF006EF0BF012EF0BF0C2
:10161000041E031E021E016C000E0222032204227D
:10162000010E0A1A000E0B6E000E0C6E000E0D6EEF
:10163000000E0E6E0550061007100810D8B423EFE8
:101640000BF025EF0BF05BEF0BF0010E096E2FEFA7
:101650000BF0D8900536063607360836092A08AE4C
:1016600034EF0BF036EF0BF029EF0BF0D8900B3680
:101670000C360D360E360550015C065002580750E8
:10168000035808500458D8A048EF0BF04AEF0BF06D
:1016900053EF0BF00550015E0650025A0750035AF3
:1016A0000850045A0B80D8900832073206320532AF
:1016B000092E36EF0BF00A50D8B461EF0BF063EF50
:1016C0000BF06BEF0BF00E1E0D1E0C1E0B6C000EC4
:1016D0000C220D220E220BC001F00CC002F00DC036
:1016E00003F00EC004F01200000E066E04BE7DEF83
:1016F0000BF07BEF0BF083EF0BF0036C041ED8B004
:10170000042A010E066E02BE8AEF0BF088EF0BF082
:1017100090EF0BF0016C021ED8B0022A010E061ADF
:10172000000E086E000E076E03500410D8B49BEF35
:101730000BF09DEF0BF0C5EF0BF0010E056EA5EF62
:101740000BF0D89003360436052A04AEAAEF0BF04E
:10175000ACEF0BF0A1EF0BF0D89007360836035032
:10176000015C04500258D8A0B8EF0BF0BAEF0BF0B0
:10177000BFEF0BF00350015E0450025A0780D8906F
:1017800004320332052EACEF0BF00650D8B4CBEF89
:101790000BF0CDEF0BF0D1EF0BF0076C081ED8B0BB
:1017A000082A07C001F008C002F01200000E026E05
:1017B0001C0E016E000E046E000E036E9AEC06F015
:1017C000000E026E1D0E016E000E046E000E036E02
:1017D0009AEC06F0ABEC0EF0000E026E0F0E016EEE
:1017E00000EC0FF0000E0B6E000E0A6E030E68EC9C
:1017F0000FF0000E026E050E016E00EC0FF0000EF1
:101800000B6E000E0A6E030E68EC0FF0000E026EF7
:10181000A00E016EB1EC0FF0000E0B6E000E0A6E02
:10182000030E68EC0FF0000E026EA00E016EB1EC1C
:101830000FF0000E0B6E000E0A6E020E68EC0FF039
:10184000000E026E0A0E016E00EC0FF0280E8AECFC
:101850000FF00C0E8AEC0FF0010E8AEC0FF0120064
:10186000000E0E6E0ABE39EF0CF037EF0CF03FEFB2
:101870000CF0096C0A1ED8B00A2A010E0E6E0CBEBE
:1018800046EF0CF044EF0CF04AEF0CF00B6C0C1E22
:10189000D8B00C2A0B500C10D8B451EF0CF053EF09
:1018A0000CF077EF0CF0010E0D6E5BEF0CF0D890A2
:1018B0000B360C360D2A0CAE60EF0CF062EF0CF01C
:1018C00057EF0CF00B50095C0C500A58D8A06BEF86
:1018D0000CF06DEF0CF071EF0CF00B50095E0C503A
:1018E0000A5AD8900C320B320D2E62EF0CF00E50CB
:1018F000D8B47DEF0CF07FEF0CF083EF0CF0096CA7
:101900000A1ED8B00A2A09C009F00AC00AF012005B
:10191000000E146E000E136EA8EF0CF013500F247F
:10192000116E14501020126E11C0F6FF12C0F7FF96
:10193000F86A050EF76403D00800F55005D0F6CF1D
:10194000E9FFF7CFEAFFEF507BEC0FF0134A142AC0
:1019500013500F24116E14501020126E11C0F6FF98
:1019600012C0F7FFF86A050EF76403D00800F550BF
:1019700005D0F6CFE9FFF7CFEAFFEF500009D8A472
:10198000C4EF0CF0C6EF0CF08EEF0CF01200000E5E
:10199000056E000E046E04C001F0010E026E000E12
:1019A000036E012AD7EF0CF0D89002360336012ED1
:1019B000D4EF0CF02B5002162C50031602500310DB
:1019C000D8B4E5EF0CF0E7EF0CF0F1EF0CF0110EEE
:1019D0000424F66E060E0520F76E0800F55002EF9F
:1019E0000DF0044A052A05BEFFEF0CF0055009E191
:1019F0000A0E045CD8A0FFEF0CF001EF0DF0CBEF66
:101A00000CF0000E1200000E066E000E056E035064
:101A10000410D8B40EEF0DF010EF0DF038EF0DF00C
:101A2000010E076E18EF0DF0D89003360436072A22
:101A300004AE1DEF0DF01FEF0DF014EF0DF0D89078
:101A4000053606360350015C04500258D8A02BEF2F
:101A50000DF02DEF0DF032EF0DF00350015E04504C
:101A6000025A0580D89004320332072E1FEF0DF082
:101A700005C001F006C002F01200270E126E100E13
:101A8000116E69EF0DF011C003F012C004F00FC029
:101A900001F010C002F074EC0BF001C009F002C0BC
:101AA0000AF0000E0C6E0A0E0B6E30EC0CF00950B2
:101AB000300F7BEC0FF011C001F012C002F0000EED
:101AC000046E0A0E036E74EC0BF001C011F002C03C
:101AD00012F012BE76EF0DF0125006E11104D8B0EC
:101AE00074EF0DF076EF0DF043EF0DF012000A6E7B
:101AF000010ECB24016E026A000E02220AC003F01E
:101B0000046A42EC0FF001C00BF002C00CF00BC0F5
:101B100001F00CC002F0000E046E190E036E03EC0F
:101B20000DF001C00BF002C00CF0FF0E0B16030EFF
:101B30000C160BC008F00CC009F0D890093208321E
:101B4000D890093208320850BB6E0BC008F0030E63
:101B500008160838F00BBA121200000E046E000EC0
:101B6000036ED3EF0DF0000E056E280E0564BBEF7B
:101B70000DF0BDEF0DF0BFEF0DF0D1EF0DF0000E49
:101B8000066E020E0664C7EF0DF0C9EF0DF0CBEF45
:101B90000DF0CEEF0DF0062AC1EF0DF0052AB5EFDE
:101BA0000DF0034A042A0150035C02500458D8A0E7
:101BB000DCEF0DF0DEEF0DF0B3EF0DF012000D6E67
:101BC0000DC00CF00C3A0F0E0C160C50076E086A84
:101BD00063EC0EF0000E026E1D0E016E0AC003F0E3
:101BE0000BC004F0C1EC07F08AEC0EF00DC00CF055
:101BF0000F0E0C160C50076E086A63EC0EF0000E08
:101C0000026E1D0E016E0AC003F00BC004F0C1ECA1
:101C100007F08AEC0EF01200106E0F50D8A413EFEC
:101C20000EF015EF0EF017EF0EF010C030F00F04AD
:101C3000D8A41DEF0EF01FEF0EF021EF0EF010C034
:101C40002FF0020E0F18D8A428EF0EF02AEF0EF096
:101C50002CEF0EF010C02EF0030E0F18D8A433EFA7
:101C60000EF035EF0EF037EF0EF010C02DF0120031
:101C7000000E026E180E016E000E046E000E036E52
:101C80009AEC06F0000E026E190E016E000E046E44
:101C9000000E036E9AEC06F0000E026E1A0E016E34
:101CA000000E046E000E036E9AEC06F0000E026E3B
:101CB0001B0E016E000E046E000E036E9AEC06F011
:101CC000ABEC0EF01200000E026E080E016E000E5C
:101CD000046E000E036EC1EC07F0000E096E000EDC
:101CE000026E1E0E016E800E0714036E046AC1ECB4
:101CF00007F02DEC0FF0D89007360836092A070EAA
:101D0000096485EF0EF087EF0EF06FEF0EF018EC20
:101D10000FF01200000E026E1C0E016E000E046E1B
:101D2000010E036EC1EC07F0000E026E050E016E8F
:101D3000B1EC0FF0000E026E1C0E016E000E046E70
:101D4000000E036EC1EC07F0000E026E050E016E70
:101D5000B1EC0FF01200000E026E1F0E016E000EAD
:101D6000046E000E036E9AEC06F0000E026E080E72
:101D7000016E000E046E000E036E9AEC06F0000E6B
:101D8000026E1E0E016E000E046E000E036E9AECC3
:101D900006F012000F501010D8A4D1EF0EF0D3EFC0
:101DA0000EF0D8EF0EF011500F0B800F8AEC0FF0F1
:101DB0000F041010D8A4DFEF0EF0E1EF0EF0E6EF05
:101DC0000EF011500F0BC00F8AEC0FF01200ABECAD
:101DD0000EF0000E026E0A0E016E000E046E010E71
:101DE000036E9AEC06F0000E026E090E016E000EF4
:101DF000046E010E036E9AEC06F00C0EC16E12001A
:101E0000000E056E000E046E08EF0FF0044A052A5E
:101E10000150045C0550800A036E0250800A03588A
:101E2000D8A015EF0FF017EF0FF006EF0FF012002C
:101E3000000E026E1F0E016E000E046E010E036E88
:101E4000C1EC07F0000E026E1F0E016E000E046E54
:101E5000000E036EC1EC07F01200000E026E080EB9
:101E6000016E000E046E010E036EC1EC07F0000E51
:101E7000026E080E016E000E046E000E036EC1ECC1
:101E800007F0120001500302F3CF05F0F4CF06F083
:101E900001500402F350062602500302F3500626B6
:101EA00005C001F006C002F01200480E016EE80EF7
:101EB000026E010E036E000E046E0FC005F010C01E
:101EC00006F0076A086AEEEC0AF00104CB6E120015
:101ED0000C6E0CC007F0086A63EC0EF0000E026E88
:101EE0001D0E016E0AC003F00BC004F0C1EC07F038
:101EF0008AEC0EF012000E6E000E0B6E010E0A6ED2
:101F00000E50DFEC0DF0000E026E500E016EB1ECC3
:101F10000FF012000E6E000E0B6E000E0A6E0E50C9
:101F2000DFEC0DF0000E026E020E016E00EC0FF001
:101F300012009492030ECA12CA840C0EBA6E000EDE
:101F4000106E640E0F6E55EC0FF0120000EE27F0CD
:101F50000C0EEE6AE806FDE1000EF86E000130EFAF
:041F600003F0120078
:020000040020DA
:08000000FFFFFFFFFFFFFFFF00
:020000040030CA
:0E000000FF027100FF8380FF0FC00FE00F4072
:00000001FF
